{
  "_format": "hh-sol-artifact-1",
  "contractName": "Milliverse",
  "sourceName": "contracts/Milliverse.sol",
  "address": "0x8090e3E0247F68466F2199A627D79E269Cb701Ae",
  "abi": [
    {
      "inputs": [],
      "stateMutability": "nonpayable",
      "type": "constructor"
    },
    {
      "anonymous": false,
      "inputs": [
        {
          "indexed": true,
          "internalType": "address",
          "name": "owner",
          "type": "address"
        },
        {
          "indexed": true,
          "internalType": "address",
          "name": "approved",
          "type": "address"
        },
        {
          "indexed": true,
          "internalType": "uint256",
          "name": "tokenId",
          "type": "uint256"
        }
      ],
      "name": "Approval",
      "type": "event"
    },
    {
      "anonymous": false,
      "inputs": [
        {
          "indexed": true,
          "internalType": "address",
          "name": "owner",
          "type": "address"
        },
        {
          "indexed": true,
          "internalType": "address",
          "name": "operator",
          "type": "address"
        },
        {
          "indexed": false,
          "internalType": "bool",
          "name": "approved",
          "type": "bool"
        }
      ],
      "name": "ApprovalForAll",
      "type": "event"
    },
    {
      "anonymous": false,
      "inputs": [
        {
          "indexed": true,
          "internalType": "uint256",
          "name": "tokenId",
          "type": "uint256"
        },
        {
          "indexed": false,
          "internalType": "string",
          "name": "bio",
          "type": "string"
        }
      ],
      "name": "BioChange",
      "type": "event"
    },
    {
      "anonymous": false,
      "inputs": [
        {
          "indexed": true,
          "internalType": "uint256",
          "name": "_id",
          "type": "uint256"
        },
        {
          "indexed": false,
          "internalType": "address",
          "name": "_minter",
          "type": "address"
        },
        {
          "indexed": false,
          "internalType": "uint256",
          "name": "_seed",
          "type": "uint256"
        }
      ],
      "name": "Mint",
      "type": "event"
    },
    {
      "anonymous": false,
      "inputs": [
        {
          "indexed": true,
          "internalType": "uint256",
          "name": "tokenId",
          "type": "uint256"
        },
        {
          "indexed": false,
          "internalType": "string",
          "name": "newName",
          "type": "string"
        }
      ],
      "name": "NameChange",
      "type": "event"
    },
    {
      "anonymous": false,
      "inputs": [
        {
          "indexed": true,
          "internalType": "address",
          "name": "previousOwner",
          "type": "address"
        },
        {
          "indexed": true,
          "internalType": "address",
          "name": "newOwner",
          "type": "address"
        }
      ],
      "name": "OwnershipTransferred",
      "type": "event"
    },
    {
      "anonymous": false,
      "inputs": [
        {
          "indexed": true,
          "internalType": "address",
          "name": "from",
          "type": "address"
        },
        {
          "indexed": true,
          "internalType": "address",
          "name": "to",
          "type": "address"
        },
        {
          "indexed": true,
          "internalType": "uint256",
          "name": "tokenId",
          "type": "uint256"
        }
      ],
      "name": "Transfer",
      "type": "event"
    },
    {
      "inputs": [],
      "name": "CHANGE_BIO_PRICE",
      "outputs": [
        {
          "internalType": "uint256",
          "name": "",
          "type": "uint256"
        }
      ],
      "stateMutability": "view",
      "type": "function"
    },
    {
      "inputs": [],
      "name": "CHANGE_NAME_PRICE",
      "outputs": [
        {
          "internalType": "uint256",
          "name": "",
          "type": "uint256"
        }
      ],
      "stateMutability": "view",
      "type": "function"
    },
    {
      "inputs": [],
      "name": "MAX_MINTABLE",
      "outputs": [
        {
          "internalType": "uint256",
          "name": "",
          "type": "uint256"
        }
      ],
      "stateMutability": "view",
      "type": "function"
    },
    {
      "inputs": [],
      "name": "NFT_PRICE",
      "outputs": [
        {
          "internalType": "uint256",
          "name": "",
          "type": "uint256"
        }
      ],
      "stateMutability": "view",
      "type": "function"
    },
    {
      "inputs": [],
      "name": "ROYALTY_VALUE",
      "outputs": [
        {
          "internalType": "uint256",
          "name": "",
          "type": "uint256"
        }
      ],
      "stateMutability": "view",
      "type": "function"
    },
    {
      "inputs": [
        {
          "internalType": "address",
          "name": "to",
          "type": "address"
        },
        {
          "internalType": "uint256",
          "name": "tokenId",
          "type": "uint256"
        }
      ],
      "name": "approve",
      "outputs": [],
      "stateMutability": "nonpayable",
      "type": "function"
    },
    {
      "inputs": [
        {
          "internalType": "address",
          "name": "",
          "type": "address"
        }
      ],
      "name": "balanceOG",
      "outputs": [
        {
          "internalType": "uint256",
          "name": "",
          "type": "uint256"
        }
      ],
      "stateMutability": "view",
      "type": "function"
    },
    {
      "inputs": [
        {
          "internalType": "address",
          "name": "owner",
          "type": "address"
        }
      ],
      "name": "balanceOf",
      "outputs": [
        {
          "internalType": "uint256",
          "name": "",
          "type": "uint256"
        }
      ],
      "stateMutability": "view",
      "type": "function"
    },
    {
      "inputs": [
        {
          "internalType": "uint256",
          "name": "",
          "type": "uint256"
        }
      ],
      "name": "bios",
      "outputs": [
        {
          "internalType": "string",
          "name": "",
          "type": "string"
        }
      ],
      "stateMutability": "view",
      "type": "function"
    },
    {
      "inputs": [
        {
          "internalType": "uint256",
          "name": "tokenId",
          "type": "uint256"
        }
      ],
      "name": "burn",
      "outputs": [],
      "stateMutability": "nonpayable",
      "type": "function"
    },
    {
      "inputs": [],
      "name": "canClaim",
      "outputs": [
        {
          "internalType": "bool",
          "name": "",
          "type": "bool"
        }
      ],
      "stateMutability": "view",
      "type": "function"
    },
    {
      "inputs": [
        {
          "internalType": "uint256",
          "name": "tokenId",
          "type": "uint256"
        },
        {
          "internalType": "string",
          "name": "newBio",
          "type": "string"
        }
      ],
      "name": "changeBio",
      "outputs": [],
      "stateMutability": "nonpayable",
      "type": "function"
    },
    {
      "inputs": [
        {
          "internalType": "uint256",
          "name": "tokenId",
          "type": "uint256"
        },
        {
          "internalType": "string",
          "name": "newName",
          "type": "string"
        }
      ],
      "name": "changeName",
      "outputs": [],
      "stateMutability": "nonpayable",
      "type": "function"
    },
    {
      "inputs": [
        {
          "internalType": "uint256",
          "name": "newPrice",
          "type": "uint256"
        }
      ],
      "name": "changePrice",
      "outputs": [],
      "stateMutability": "nonpayable",
      "type": "function"
    },
    {
      "inputs": [
        {
          "internalType": "uint256",
          "name": "",
          "type": "uint256"
        }
      ],
      "name": "doesSeedExist",
      "outputs": [
        {
          "internalType": "bool",
          "name": "",
          "type": "bool"
        }
      ],
      "stateMutability": "view",
      "type": "function"
    },
    {
      "inputs": [],
      "name": "getAmountMinted",
      "outputs": [
        {
          "internalType": "uint256",
          "name": "",
          "type": "uint256"
        }
      ],
      "stateMutability": "view",
      "type": "function"
    },
    {
      "inputs": [
        {
          "internalType": "uint256",
          "name": "tokenId",
          "type": "uint256"
        }
      ],
      "name": "getApproved",
      "outputs": [
        {
          "internalType": "address",
          "name": "",
          "type": "address"
        }
      ],
      "stateMutability": "view",
      "type": "function"
    },
    {
      "inputs": [],
      "name": "getBalance",
      "outputs": [
        {
          "internalType": "uint256",
          "name": "",
          "type": "uint256"
        }
      ],
      "stateMutability": "view",
      "type": "function"
    },
    {
      "inputs": [
        {
          "internalType": "uint256",
          "name": "tokenId",
          "type": "uint256"
        }
      ],
      "name": "getBio",
      "outputs": [
        {
          "internalType": "string",
          "name": "",
          "type": "string"
        }
      ],
      "stateMutability": "view",
      "type": "function"
    },
    {
      "inputs": [
        {
          "internalType": "uint256",
          "name": "tokenId",
          "type": "uint256"
        }
      ],
      "name": "getName",
      "outputs": [
        {
          "internalType": "string",
          "name": "",
          "type": "string"
        }
      ],
      "stateMutability": "view",
      "type": "function"
    },
    {
      "inputs": [
        {
          "internalType": "uint256",
          "name": "tokenId",
          "type": "uint256"
        }
      ],
      "name": "getOwnerOf",
      "outputs": [
        {
          "internalType": "address",
          "name": "",
          "type": "address"
        }
      ],
      "stateMutability": "view",
      "type": "function"
    },
    {
      "inputs": [],
      "name": "getPrice",
      "outputs": [
        {
          "internalType": "uint256",
          "name": "",
          "type": "uint256"
        }
      ],
      "stateMutability": "view",
      "type": "function"
    },
    {
      "inputs": [],
      "name": "getReward",
      "outputs": [],
      "stateMutability": "nonpayable",
      "type": "function"
    },
    {
      "inputs": [
        {
          "internalType": "uint256",
          "name": "tokenId",
          "type": "uint256"
        }
      ],
      "name": "getSeed",
      "outputs": [
        {
          "internalType": "uint256",
          "name": "",
          "type": "uint256"
        }
      ],
      "stateMutability": "view",
      "type": "function"
    },
    {
      "inputs": [
        {
          "internalType": "address",
          "name": "_owner",
          "type": "address"
        }
      ],
      "name": "getTokenOwner",
      "outputs": [
        {
          "internalType": "uint256",
          "name": "",
          "type": "uint256"
        }
      ],
      "stateMutability": "view",
      "type": "function"
    },
    {
      "inputs": [],
      "name": "getTotalAmount",
      "outputs": [
        {
          "internalType": "uint256",
          "name": "",
          "type": "uint256"
        }
      ],
      "stateMutability": "view",
      "type": "function"
    },
    {
      "inputs": [
        {
          "internalType": "address",
          "name": "",
          "type": "address"
        }
      ],
      "name": "hasAlreadyBuy",
      "outputs": [
        {
          "internalType": "bool",
          "name": "",
          "type": "bool"
        }
      ],
      "stateMutability": "view",
      "type": "function"
    },
    {
      "inputs": [
        {
          "internalType": "address",
          "name": "owner",
          "type": "address"
        },
        {
          "internalType": "address",
          "name": "operator",
          "type": "address"
        }
      ],
      "name": "isApprovedForAll",
      "outputs": [
        {
          "internalType": "bool",
          "name": "",
          "type": "bool"
        }
      ],
      "stateMutability": "view",
      "type": "function"
    },
    {
      "inputs": [],
      "name": "minted",
      "outputs": [
        {
          "internalType": "uint256",
          "name": "",
          "type": "uint256"
        }
      ],
      "stateMutability": "view",
      "type": "function"
    },
    {
      "inputs": [],
      "name": "name",
      "outputs": [
        {
          "internalType": "string",
          "name": "",
          "type": "string"
        }
      ],
      "stateMutability": "view",
      "type": "function"
    },
    {
      "inputs": [
        {
          "internalType": "uint256",
          "name": "",
          "type": "uint256"
        }
      ],
      "name": "names",
      "outputs": [
        {
          "internalType": "string",
          "name": "",
          "type": "string"
        }
      ],
      "stateMutability": "view",
      "type": "function"
    },
    {
      "inputs": [],
      "name": "owner",
      "outputs": [
        {
          "internalType": "address",
          "name": "",
          "type": "address"
        }
      ],
      "stateMutability": "view",
      "type": "function"
    },
    {
      "inputs": [
        {
          "internalType": "uint256",
          "name": "tokenId",
          "type": "uint256"
        }
      ],
      "name": "ownerOf",
      "outputs": [
        {
          "internalType": "address",
          "name": "",
          "type": "address"
        }
      ],
      "stateMutability": "view",
      "type": "function"
    },
    {
      "inputs": [
        {
          "internalType": "uint256",
          "name": "",
          "type": "uint256"
        }
      ],
      "name": "ownerOfToken",
      "outputs": [
        {
          "internalType": "address",
          "name": "",
          "type": "address"
        }
      ],
      "stateMutability": "view",
      "type": "function"
    },
    {
      "inputs": [],
      "name": "renounceOwnership",
      "outputs": [],
      "stateMutability": "nonpayable",
      "type": "function"
    },
    {
      "inputs": [
        {
          "internalType": "uint256",
          "name": "tokenId",
          "type": "uint256"
        },
        {
          "internalType": "uint256",
          "name": "value",
          "type": "uint256"
        }
      ],
      "name": "royaltyInfo",
      "outputs": [
        {
          "internalType": "address",
          "name": "receiver",
          "type": "address"
        },
        {
          "internalType": "uint256",
          "name": "royaltyAmount",
          "type": "uint256"
        }
      ],
      "stateMutability": "view",
      "type": "function"
    },
    {
      "inputs": [
        {
          "internalType": "uint256",
          "name": "seed",
          "type": "uint256"
        }
      ],
      "name": "safeMint",
      "outputs": [],
      "stateMutability": "payable",
      "type": "function"
    },
    {
      "inputs": [
        {
          "internalType": "address",
          "name": "from",
          "type": "address"
        },
        {
          "internalType": "address",
          "name": "to",
          "type": "address"
        },
        {
          "internalType": "uint256",
          "name": "tokenId",
          "type": "uint256"
        }
      ],
      "name": "safeTransferFrom",
      "outputs": [],
      "stateMutability": "nonpayable",
      "type": "function"
    },
    {
      "inputs": [
        {
          "internalType": "address",
          "name": "from",
          "type": "address"
        },
        {
          "internalType": "address",
          "name": "to",
          "type": "address"
        },
        {
          "internalType": "uint256",
          "name": "tokenId",
          "type": "uint256"
        },
        {
          "internalType": "bytes",
          "name": "_data",
          "type": "bytes"
        }
      ],
      "name": "safeTransferFrom",
      "outputs": [],
      "stateMutability": "nonpayable",
      "type": "function"
    },
    {
      "inputs": [
        {
          "internalType": "uint256",
          "name": "",
          "type": "uint256"
        }
      ],
      "name": "seeds",
      "outputs": [
        {
          "internalType": "uint256",
          "name": "",
          "type": "uint256"
        }
      ],
      "stateMutability": "view",
      "type": "function"
    },
    {
      "inputs": [
        {
          "internalType": "address",
          "name": "operator",
          "type": "address"
        },
        {
          "internalType": "bool",
          "name": "approved",
          "type": "bool"
        }
      ],
      "name": "setApprovalForAll",
      "outputs": [],
      "stateMutability": "nonpayable",
      "type": "function"
    },
    {
      "inputs": [
        {
          "internalType": "string",
          "name": "newUri",
          "type": "string"
        }
      ],
      "name": "setBaseUri",
      "outputs": [],
      "stateMutability": "nonpayable",
      "type": "function"
    },
    {
      "inputs": [
        {
          "internalType": "address",
          "name": "funds",
          "type": "address"
        }
      ],
      "name": "setFundsAddress",
      "outputs": [],
      "stateMutability": "nonpayable",
      "type": "function"
    },
    {
      "inputs": [
        {
          "internalType": "uint256",
          "name": "total",
          "type": "uint256"
        }
      ],
      "name": "setTotalAmount",
      "outputs": [],
      "stateMutability": "nonpayable",
      "type": "function"
    },
    {
      "inputs": [
        {
          "internalType": "address",
          "name": "_yield",
          "type": "address"
        }
      ],
      "name": "setYieldToken",
      "outputs": [],
      "stateMutability": "nonpayable",
      "type": "function"
    },
    {
      "inputs": [
        {
          "internalType": "bytes4",
          "name": "interfaceId",
          "type": "bytes4"
        }
      ],
      "name": "supportsInterface",
      "outputs": [
        {
          "internalType": "bool",
          "name": "",
          "type": "bool"
        }
      ],
      "stateMutability": "view",
      "type": "function"
    },
    {
      "inputs": [],
      "name": "symbol",
      "outputs": [
        {
          "internalType": "string",
          "name": "",
          "type": "string"
        }
      ],
      "stateMutability": "view",
      "type": "function"
    },
    {
      "inputs": [
        {
          "internalType": "uint256",
          "name": "tok",
          "type": "uint256"
        }
      ],
      "name": "testMint",
      "outputs": [],
      "stateMutability": "payable",
      "type": "function"
    },
    {
      "inputs": [],
      "name": "toggleClaimability",
      "outputs": [],
      "stateMutability": "nonpayable",
      "type": "function"
    },
    {
      "inputs": [
        {
          "internalType": "address",
          "name": "",
          "type": "address"
        }
      ],
      "name": "tokenOwner",
      "outputs": [
        {
          "internalType": "uint256",
          "name": "",
          "type": "uint256"
        }
      ],
      "stateMutability": "view",
      "type": "function"
    },
    {
      "inputs": [
        {
          "internalType": "uint256",
          "name": "tokenId",
          "type": "uint256"
        }
      ],
      "name": "tokenURI",
      "outputs": [
        {
          "internalType": "string",
          "name": "",
          "type": "string"
        }
      ],
      "stateMutability": "view",
      "type": "function"
    },
    {
      "inputs": [
        {
          "internalType": "address",
          "name": "from",
          "type": "address"
        },
        {
          "internalType": "address",
          "name": "to",
          "type": "address"
        },
        {
          "internalType": "uint256",
          "name": "tokenId",
          "type": "uint256"
        }
      ],
      "name": "transferFrom",
      "outputs": [],
      "stateMutability": "nonpayable",
      "type": "function"
    },
    {
      "inputs": [
        {
          "internalType": "address",
          "name": "newOwner",
          "type": "address"
        }
      ],
      "name": "transferOwnership",
      "outputs": [],
      "stateMutability": "nonpayable",
      "type": "function"
    },
    {
      "inputs": [],
      "name": "withdrawFunds",
      "outputs": [],
      "stateMutability": "nonpayable",
      "type": "function"
    },
    {
      "inputs": [],
      "name": "yieldToken",
      "outputs": [
        {
          "internalType": "contract YieldTokenC",
          "name": "",
          "type": "address"
        }
      ],
      "stateMutability": "view",
      "type": "function"
    }
  ],
  "bytecode": "0x60806040526064600a55670de0b6b3a7640000600b55678ac7230489e80000600c55678ac7230489e80000600d55604051806060016040528060288152602001620060b460289139600e90805190602001906200005e92919062000276565b506001600f556001601060006101000a81548160ff02191690831515021790555073d34708b9abdd1138bd410093e52f18d003664b2e601960006101000a81548173ffffffffffffffffffffffffffffffffffffffff021916908373ffffffffffffffffffffffffffffffffffffffff160217905550348015620000e157600080fd5b506040518060400160405280601181526020017f4d696c6c69766572736520436f756e74790000000000000000000000000000008152506040518060400160405280600381526020017f4d5643000000000000000000000000000000000000000000000000000000000081525081600090805190602001906200016692919062000276565b5080600190805190602001906200017f92919062000276565b505050620001a262000196620001a860201b60201c565b620001b060201b60201c565b6200038b565b600033905090565b6000600860009054906101000a900473ffffffffffffffffffffffffffffffffffffffff16905081600860006101000a81548173ffffffffffffffffffffffffffffffffffffffff021916908373ffffffffffffffffffffffffffffffffffffffff1602179055508173ffffffffffffffffffffffffffffffffffffffff168173ffffffffffffffffffffffffffffffffffffffff167f8be0079c531659141344cd1fd0a4f28419497f9722a3daafe3b4186f6b6457e060405160405180910390a35050565b828054620002849062000355565b90600052602060002090601f016020900481019282620002a85760008555620002f4565b82601f10620002c357805160ff1916838001178555620002f4565b82800160010185558215620002f4579182015b82811115620002f3578251825591602001919060010190620002d6565b5b50905062000303919062000307565b5090565b5b808211156200032257600081600090555060010162000308565b5090565b7f4e487b7100000000000000000000000000000000000000000000000000000000600052602260045260246000fd5b600060028204905060018216806200036e57607f821691505b6020821081141562000385576200038462000326565b5b50919050565b615d19806200039b6000396000f3fe6080604052600436106103505760003560e01c806370a08231116101c6578063b802408a116100f7578063c94364e311610095578063e777df201161006f578063e777df2014610ca3578063e985e9c514610cce578063f0503e8014610d0b578063f2fde38b14610d4857610350565b8063c94364e314610c12578063dc17c9ca14610c29578063e0d4ea3714610c6657610350565b8063bb1a532d116100d1578063bb1a532d14610b32578063c39cbef114610b6f578063c57ac5d614610b98578063c87b56dd14610bd557610350565b8063b802408a14610aa1578063b88d4fde14610acc578063b9200ff514610af557610350565b806393791b0311610164578063a0bcfc7f1161013e578063a0bcfc7f146109e9578063a22cb46514610a12578063a2b40d1914610a3b578063b4e0908214610a6457610350565b806393791b031461096857806395d89b411461099357806398d5fdca146109be57610350565b80637f19abe0116101a05780637f19abe0146108ac57806383638710146108d55780638da5cb5b146109125780638f65357c1461093d57610350565b806370a082311461082d578063715018a61461086a57806376d5de851461088157610350565b80633d18b912116102a05780635b840a8f1161023e57806365ac43411161021857806365ac43411461076f578063676dd5631461079a5780636b8ff574146107c55780636dc7a6271461080257610350565b80635b840a8f146106cc57806360df8a1f146107095780636352211e1461073257610350565b806342966c681161027a57806342966c68146106125780634622ab031461063b5780634d426528146106785780634f02c420146106a157610350565b80633d18b912146105a75780633f879faf146105be57806342842e0e146105e957610350565b806323ffce851161030d5780632f3f94ae116102e75780632f3f94ae146104f557806331c864e81461051157806338712d8d1461052d5780633ab69b621461056a57610350565b806323ffce851461047757806324600fc3146104a05780632a55205a146104b757610350565b806301ffc9a71461035557806306fdde0314610392578063081812fc146103bd578063095ea7b3146103fa57806312065fe01461042357806323b872dd1461044e575b600080fd5b34801561036157600080fd5b5061037c60048036038101906103779190614135565b610d71565b604051610389919061417d565b60405180910390f35b34801561039e57600080fd5b506103a7610d93565b6040516103b49190614231565b60405180910390f35b3480156103c957600080fd5b506103e460048036038101906103df9190614289565b610e25565b6040516103f191906142f7565b60405180910390f35b34801561040657600080fd5b50610421600480360381019061041c919061433e565b610eaa565b005b34801561042f57600080fd5b50610438610fc2565b604051610445919061438d565b60405180910390f35b34801561045a57600080fd5b50610475600480360381019061047091906143a8565b610fca565b005b34801561048357600080fd5b5061049e600480360381019061049991906143fb565b611113565b005b3480156104ac57600080fd5b506104b56111d3565b005b3480156104c357600080fd5b506104de60048036038101906104d99190614428565b6112ba565b6040516104ec929190614468565b60405180910390f35b61050f600480360381019061050a9190614289565b61136d565b005b61052b60048036038101906105269190614289565b611404565b005b34801561053957600080fd5b50610554600480360381019061054f91906143fb565b611884565b604051610561919061438d565b60405180910390f35b34801561057657600080fd5b50610591600480360381019061058c91906143fb565b61189c565b60405161059e919061438d565b60405180910390f35b3480156105b357600080fd5b506105bc6118b4565b005b3480156105ca57600080fd5b506105d36119d3565b6040516105e0919061438d565b60405180910390f35b3480156105f557600080fd5b50610610600480360381019061060b91906143a8565b6119d9565b005b34801561061e57600080fd5b5061063960048036038101906106349190614289565b6119f9565b005b34801561064757600080fd5b50610662600480360381019061065d9190614289565b611a55565b60405161066f9190614231565b60405180910390f35b34801561068457600080fd5b5061069f600480360381019061069a91906145c6565b611af5565b005b3480156106ad57600080fd5b506106b6611d7e565b6040516106c3919061438d565b60405180910390f35b3480156106d857600080fd5b506106f360048036038101906106ee9190614289565b611d84565b604051610700919061417d565b60405180910390f35b34801561071557600080fd5b50610730600480360381019061072b9190614289565b611da4565b005b34801561073e57600080fd5b5061075960048036038101906107549190614289565b611e2a565b60405161076691906142f7565b60405180910390f35b34801561077b57600080fd5b50610784611edc565b604051610791919061438d565b60405180910390f35b3480156107a657600080fd5b506107af611ee6565b6040516107bc919061438d565b60405180910390f35b3480156107d157600080fd5b506107ec60048036038101906107e79190614289565b611eec565b6040516107f99190614231565b60405180910390f35b34801561080e57600080fd5b50610817611f91565b604051610824919061417d565b60405180910390f35b34801561083957600080fd5b50610854600480360381019061084f91906143fb565b611fa4565b604051610861919061438d565b60405180910390f35b34801561087657600080fd5b5061087f61205c565b005b34801561088d57600080fd5b506108966120e4565b6040516108a39190614681565b60405180910390f35b3480156108b857600080fd5b506108d360048036038101906108ce91906143fb565b61210a565b005b3480156108e157600080fd5b506108fc60048036038101906108f79190614289565b6121ca565b60405161090991906142f7565b60405180910390f35b34801561091e57600080fd5b50610927612207565b60405161093491906142f7565b60405180910390f35b34801561094957600080fd5b50610952612231565b60405161095f919061438d565b60405180910390f35b34801561097457600080fd5b5061097d612237565b60405161098a919061438d565b60405180910390f35b34801561099f57600080fd5b506109a861223d565b6040516109b59190614231565b60405180910390f35b3480156109ca57600080fd5b506109d36122cf565b6040516109e0919061438d565b60405180910390f35b3480156109f557600080fd5b50610a106004803603810190610a0b919061469c565b6122d9565b005b348015610a1e57600080fd5b50610a396004803603810190610a349190614711565b61236f565b005b348015610a4757600080fd5b50610a626004803603810190610a5d9190614289565b6124f0565b005b348015610a7057600080fd5b50610a8b6004803603810190610a869190614289565b612576565b604051610a989190614231565b60405180910390f35b348015610aad57600080fd5b50610ab6612616565b604051610ac3919061438d565b60405180910390f35b348015610ad857600080fd5b50610af36004803603810190610aee91906147f2565b61261c565b005b348015610b0157600080fd5b50610b1c6004803603810190610b179190614289565b612767565b604051610b299190614231565b60405180910390f35b348015610b3e57600080fd5b50610b596004803603810190610b5491906143fb565b61280c565b604051610b66919061417d565b60405180910390f35b348015610b7b57600080fd5b50610b966004803603810190610b9191906145c6565b61282c565b005b348015610ba457600080fd5b50610bbf6004803603810190610bba9190614289565b612ab5565b604051610bcc91906142f7565b60405180910390f35b348015610be157600080fd5b50610bfc6004803603810190610bf79190614289565b612ae8565b604051610c099190614231565b60405180910390f35b348015610c1e57600080fd5b50610c27612afa565b005b348015610c3557600080fd5b50610c506004803603810190610c4b91906143fb565b612ba2565b604051610c5d919061438d565b60405180910390f35b348015610c7257600080fd5b50610c8d6004803603810190610c889190614289565b612beb565b604051610c9a919061438d565b60405180910390f35b348015610caf57600080fd5b50610cb8612c08565b604051610cc5919061438d565b60405180910390f35b348015610cda57600080fd5b50610cf56004803603810190610cf09190614875565b612c12565b604051610d02919061417d565b60405180910390f35b348015610d1757600080fd5b50610d326004803603810190610d2d9190614289565b612ca6565b604051610d3f919061438d565b60405180910390f35b348015610d5457600080fd5b50610d6f6004803603810190610d6a91906143fb565b612cbe565b005b6000610d7c82612db6565b80610d8c5750610d8b82612e98565b5b9050919050565b606060008054610da2906148e4565b80601f0160208091040260200160405190810160405280929190818152602001828054610dce906148e4565b8015610e1b5780601f10610df057610100808354040283529160200191610e1b565b820191906000526020600020905b815481529060010190602001808311610dfe57829003601f168201915b5050505050905090565b6000610e3082612f12565b610e6f576040517f08c379a0000000000000000000000000000000000000000000000000000000008152600401610e6690614988565b60405180910390fd5b6004600083815260200190815260200160002060009054906101000a900473ffffffffffffffffffffffffffffffffffffffff169050919050565b6000610eb582611e2a565b90508073ffffffffffffffffffffffffffffffffffffffff168373ffffffffffffffffffffffffffffffffffffffff161415610f26576040517f08c379a0000000000000000000000000000000000000000000000000000000008152600401610f1d90614a1a565b60405180910390fd5b8073ffffffffffffffffffffffffffffffffffffffff16610f45612f7e565b73ffffffffffffffffffffffffffffffffffffffff161480610f745750610f7381610f6e612f7e565b612c12565b5b610fb3576040517f08c379a0000000000000000000000000000000000000000000000000000000008152600401610faa90614aac565b60405180910390fd5b610fbd8383612f86565b505050565b600047905090565b600960009054906101000a900473ffffffffffffffffffffffffffffffffffffffff1673ffffffffffffffffffffffffffffffffffffffff1663d230af3a84846040518363ffffffff1660e01b8152600401611027929190614acc565b600060405180830381600087803b15801561104157600080fd5b505af1158015611055573d6000803e3d6000fd5b50505050601160008473ffffffffffffffffffffffffffffffffffffffff1673ffffffffffffffffffffffffffffffffffffffff16815260200190815260200160002060008154809291906110a990614b24565b9190505550601160008373ffffffffffffffffffffffffffffffffffffffff1673ffffffffffffffffffffffffffffffffffffffff16815260200190815260200160002060008154809291906110fe90614b4e565b919050555061110e83838361303f565b505050565b61111b612f7e565b73ffffffffffffffffffffffffffffffffffffffff16611139612207565b73ffffffffffffffffffffffffffffffffffffffff161461118f576040517f08c379a000000000000000000000000000000000000000000000000000000000815260040161118690614be3565b60405180910390fd5b80600960006101000a81548173ffffffffffffffffffffffffffffffffffffffff021916908373ffffffffffffffffffffffffffffffffffffffff16021790555050565b6111db612f7e565b73ffffffffffffffffffffffffffffffffffffffff166111f9612207565b73ffffffffffffffffffffffffffffffffffffffff161461124f576040517f08c379a000000000000000000000000000000000000000000000000000000000815260040161124690614be3565b60405180910390fd5b601960009054906101000a900473ffffffffffffffffffffffffffffffffffffffff1673ffffffffffffffffffffffffffffffffffffffff166108fc479081150290604051600060405180830381858888f193505050501580156112b7573d6000803e3d6000fd5b50565b6000806000600660008681526020019081526020016000206040518060400160405290816000820160009054906101000a900473ffffffffffffffffffffffffffffffffffffffff1673ffffffffffffffffffffffffffffffffffffffff1673ffffffffffffffffffffffffffffffffffffffff168152602001600182015481525050905080600001516127108260200151866113579190614c03565b6113619190614c8c565b92509250509250929050565b670de0b6b3a76400003410156113b8576040517f08c379a00000000000000000000000000000000000000000000000000000000081526004016113af90614d09565b60405180910390fd5b60005b8181101561140057601060009054906101000a900460ff1615601060006101000a81548160ff02191690831515021790555080806113f890614b4e565b9150506113bb565b5050565b600081141561141257600080fd5b600015156013600083815260200190815260200160002060009054906101000a900460ff16151514611479576040517f08c379a000000000000000000000000000000000000000000000000000000000815260040161147090614d75565b60405180910390fd5b601060009054906101000a900460ff166114c8576040517f08c379a00000000000000000000000000000000000000000000000000000000081526004016114bf90614e07565b60405180910390fd5b600a54600f5460016114da9190614e27565b111561151b576040517f08c379a000000000000000000000000000000000000000000000000000000000815260040161151290614ec9565b60405180910390fd5b600b54341015611560576040517f08c379a000000000000000000000000000000000000000000000000000000000815260040161155790614f35565b60405180910390fd5b60001515601460003373ffffffffffffffffffffffffffffffffffffffff1673ffffffffffffffffffffffffffffffffffffffff16815260200190815260200160002060009054906101000a900460ff161515146115f3576040517f08c379a00000000000000000000000000000000000000000000000000000000081526004016115ea90614fa1565b60405180910390fd5b601160003373ffffffffffffffffffffffffffffffffffffffff1673ffffffffffffffffffffffffffffffffffffffff168152602001908152602001600020600081548092919061164390614b4e565b91905055503360156000600f54815260200190815260200160002060006101000a81548173ffffffffffffffffffffffffffffffffffffffff021916908373ffffffffffffffffffffffffffffffffffffffff160217905550600f54601660003373ffffffffffffffffffffffffffffffffffffffff1673ffffffffffffffffffffffffffffffffffffffff168152602001908152602001600020819055508060126000600f5481526020019081526020016000208190555060016013600083815260200190815260200160002060006101000a81548160ff0219169083151502179055506001601460003373ffffffffffffffffffffffffffffffffffffffff1673ffffffffffffffffffffffffffffffffffffffff16815260200190815260200160002060006101000a81548160ff02191690831515021790555061178f600f54336101f461309f565b61179b33600f5461317b565b600960009054906101000a900473ffffffffffffffffffffffffffffffffffffffff1673ffffffffffffffffffffffffffffffffffffffff1663cc240c013360016040518363ffffffff1660e01b81526004016117f9929190614ffc565b600060405180830381600087803b15801561181357600080fd5b505af1158015611827573d6000803e3d6000fd5b50505050600f547f4e3883c75cc9c752bb1db2e406a822e4a75067ae77ad9a0a4d179f2709b9e1f6338360405161185f929190614468565b60405180910390a26001600f600082825461187a9190614e27565b9250508190555050565b60116020528060005260406000206000915090505481565b60166020528060005260406000206000915090505481565b600960009054906101000a900473ffffffffffffffffffffffffffffffffffffffff1673ffffffffffffffffffffffffffffffffffffffff1663d230af3a3360006040518363ffffffff1660e01b8152600401611912929190614acc565b600060405180830381600087803b15801561192c57600080fd5b505af1158015611940573d6000803e3d6000fd5b50505050600960009054906101000a900473ffffffffffffffffffffffffffffffffffffffff1673ffffffffffffffffffffffffffffffffffffffff1663c00007b0336040518263ffffffff1660e01b815260040161199f91906142f7565b600060405180830381600087803b1580156119b957600080fd5b505af11580156119cd573d6000803e3d6000fd5b50505050565b600a5481565b6119f48383836040518060200160405280600081525061261c565b505050565b611a0a611a04612f7e565b82613199565b611a49576040517f08c379a0000000000000000000000000000000000000000000000000000000008152600401611a4090615097565b60405180910390fd5b611a5281613277565b50565b60176020528060005260406000206000915090508054611a74906148e4565b80601f0160208091040260200160405190810160405280929190818152602001828054611aa0906148e4565b8015611aed5780601f10611ac257610100808354040283529160200191611aed565b820191906000526020600020905b815481529060010190602001808311611ad057829003601f168201915b505050505081565b6015600083815260200190815260200160002060009054906101000a900473ffffffffffffffffffffffffffffffffffffffff1673ffffffffffffffffffffffffffffffffffffffff163373ffffffffffffffffffffffffffffffffffffffff1614611b96576040517f08c379a0000000000000000000000000000000000000000000000000000000008152600401611b8d90615103565b60405180910390fd5b600281604051611ba6919061516a565b602060405180830381855afa158015611bc3573d6000803e3d6000fd5b5050506040513d601f19601f82011682018060405250810190611be691906151b7565b600260186000858152602001908152602001600020604051611c089190615278565b602060405180830381855afa158015611c25573d6000803e3d6000fd5b5050506040513d601f19601f82011682018060405250810190611c4891906151b7565b1415611c89576040517f08c379a0000000000000000000000000000000000000000000000000000000008152600401611c8090615301565b60405180910390fd5b600960009054906101000a900473ffffffffffffffffffffffffffffffffffffffff1673ffffffffffffffffffffffffffffffffffffffff16639dc29fac33600d546040518363ffffffff1660e01b8152600401611ce8929190614468565b600060405180830381600087803b158015611d0257600080fd5b505af1158015611d16573d6000803e3d6000fd5b5050505080601860008481526020019081526020016000209080519060200190611d41929190613fe6565b50817fbe3e2fc72ea4bd0d860e908b1ee27aa9856809e62a75bfc0cb7f04b5d791873d82604051611d729190614231565b60405180910390a25050565b600f5481565b60136020528060005260406000206000915054906101000a900460ff1681565b611dac612f7e565b73ffffffffffffffffffffffffffffffffffffffff16611dca612207565b73ffffffffffffffffffffffffffffffffffffffff1614611e20576040517f08c379a0000000000000000000000000000000000000000000000000000000008152600401611e1790614be3565b60405180910390fd5b80600a8190555050565b6000806002600084815260200190815260200160002060009054906101000a900473ffffffffffffffffffffffffffffffffffffffff169050600073ffffffffffffffffffffffffffffffffffffffff168173ffffffffffffffffffffffffffffffffffffffff161415611ed3576040517f08c379a0000000000000000000000000000000000000000000000000000000008152600401611eca90615393565b60405180910390fd5b80915050919050565b6000600a54905090565b600b5481565b6060601760008381526020019081526020016000208054611f0c906148e4565b80601f0160208091040260200160405190810160405280929190818152602001828054611f38906148e4565b8015611f855780601f10611f5a57610100808354040283529160200191611f85565b820191906000526020600020905b815481529060010190602001808311611f6857829003601f168201915b50505050509050919050565b601060009054906101000a900460ff1681565b60008073ffffffffffffffffffffffffffffffffffffffff168273ffffffffffffffffffffffffffffffffffffffff161415612015576040517f08c379a000000000000000000000000000000000000000000000000000000000815260040161200c90615425565b60405180910390fd5b600360008373ffffffffffffffffffffffffffffffffffffffff1673ffffffffffffffffffffffffffffffffffffffff168152602001908152602001600020549050919050565b612064612f7e565b73ffffffffffffffffffffffffffffffffffffffff16612082612207565b73ffffffffffffffffffffffffffffffffffffffff16146120d8576040517f08c379a00000000000000000000000000000000000000000000000000000000081526004016120cf90614be3565b60405180910390fd5b6120e26000613283565b565b600960009054906101000a900473ffffffffffffffffffffffffffffffffffffffff1681565b612112612f7e565b73ffffffffffffffffffffffffffffffffffffffff16612130612207565b73ffffffffffffffffffffffffffffffffffffffff1614612186576040517f08c379a000000000000000000000000000000000000000000000000000000000815260040161217d90614be3565b60405180910390fd5b80601960006101000a81548173ffffffffffffffffffffffffffffffffffffffff021916908373ffffffffffffffffffffffffffffffffffffffff16021790555050565b60006015600083815260200190815260200160002060009054906101000a900473ffffffffffffffffffffffffffffffffffffffff169050919050565b6000600860009054906101000a900473ffffffffffffffffffffffffffffffffffffffff16905090565b600c5481565b6101f481565b60606001805461224c906148e4565b80601f0160208091040260200160405190810160405280929190818152602001828054612278906148e4565b80156122c55780601f1061229a576101008083540402835291602001916122c5565b820191906000526020600020905b8154815290600101906020018083116122a857829003601f168201915b5050505050905090565b6000600b54905090565b6122e1612f7e565b73ffffffffffffffffffffffffffffffffffffffff166122ff612207565b73ffffffffffffffffffffffffffffffffffffffff1614612355576040517f08c379a000000000000000000000000000000000000000000000000000000000815260040161234c90614be3565b60405180910390fd5b80600e908051906020019061236b929190613fe6565b5050565b612377612f7e565b73ffffffffffffffffffffffffffffffffffffffff168273ffffffffffffffffffffffffffffffffffffffff1614156123e5576040517f08c379a00000000000000000000000000000000000000000000000000000000081526004016123dc90615491565b60405180910390fd5b80600560006123f2612f7e565b73ffffffffffffffffffffffffffffffffffffffff1673ffffffffffffffffffffffffffffffffffffffff16815260200190815260200160002060008473ffffffffffffffffffffffffffffffffffffffff1673ffffffffffffffffffffffffffffffffffffffff16815260200190815260200160002060006101000a81548160ff0219169083151502179055508173ffffffffffffffffffffffffffffffffffffffff1661249f612f7e565b73ffffffffffffffffffffffffffffffffffffffff167f17307eab39ab6107e8899845ad3d59bd9653f200f220920489ca2b5937696c31836040516124e4919061417d565b60405180910390a35050565b6124f8612f7e565b73ffffffffffffffffffffffffffffffffffffffff16612516612207565b73ffffffffffffffffffffffffffffffffffffffff161461256c576040517f08c379a000000000000000000000000000000000000000000000000000000000815260040161256390614be3565b60405180910390fd5b80600b8190555050565b60186020528060005260406000206000915090508054612595906148e4565b80601f01602080910402602001604051908101604052809291908181526020018280546125c1906148e4565b801561260e5780601f106125e35761010080835404028352916020019161260e565b820191906000526020600020905b8154815290600101906020018083116125f157829003601f168201915b505050505081565b600d5481565b600960009054906101000a900473ffffffffffffffffffffffffffffffffffffffff1673ffffffffffffffffffffffffffffffffffffffff1663d230af3a85856040518363ffffffff1660e01b8152600401612679929190614acc565b600060405180830381600087803b15801561269357600080fd5b505af11580156126a7573d6000803e3d6000fd5b50505050601160008573ffffffffffffffffffffffffffffffffffffffff1673ffffffffffffffffffffffffffffffffffffffff16815260200190815260200160002060008154809291906126fb90614b24565b9190505550601160008473ffffffffffffffffffffffffffffffffffffffff1673ffffffffffffffffffffffffffffffffffffffff168152602001908152602001600020600081548092919061275090614b4e565b919050555061276184848484613349565b50505050565b6060601860008381526020019081526020016000208054612787906148e4565b80601f01602080910402602001604051908101604052809291908181526020018280546127b3906148e4565b80156128005780601f106127d557610100808354040283529160200191612800565b820191906000526020600020905b8154815290600101906020018083116127e357829003601f168201915b50505050509050919050565b60146020528060005260406000206000915054906101000a900460ff1681565b6015600083815260200190815260200160002060009054906101000a900473ffffffffffffffffffffffffffffffffffffffff1673ffffffffffffffffffffffffffffffffffffffff163373ffffffffffffffffffffffffffffffffffffffff16146128cd576040517f08c379a00000000000000000000000000000000000000000000000000000000081526004016128c490615103565b60405180910390fd5b6002816040516128dd919061516a565b602060405180830381855afa1580156128fa573d6000803e3d6000fd5b5050506040513d601f19601f8201168201806040525081019061291d91906151b7565b60026017600085815260200190815260200160002060405161293f9190615278565b602060405180830381855afa15801561295c573d6000803e3d6000fd5b5050506040513d601f19601f8201168201806040525081019061297f91906151b7565b14156129c0576040517f08c379a00000000000000000000000000000000000000000000000000000000081526004016129b790615523565b60405180910390fd5b600960009054906101000a900473ffffffffffffffffffffffffffffffffffffffff1673ffffffffffffffffffffffffffffffffffffffff16639dc29fac33600c546040518363ffffffff1660e01b8152600401612a1f929190614468565b600060405180830381600087803b158015612a3957600080fd5b505af1158015612a4d573d6000803e3d6000fd5b5050505080601760008481526020019081526020016000209080519060200190612a78929190613fe6565b50817f7e632a301794d8d4a81ea7e20f37d1947158d36e66403af04ba85dd194b66f1b82604051612aa99190614231565b60405180910390a25050565b60156020528060005260406000206000915054906101000a900473ffffffffffffffffffffffffffffffffffffffff1681565b6060612af3826133ab565b9050919050565b612b02612f7e565b73ffffffffffffffffffffffffffffffffffffffff16612b20612207565b73ffffffffffffffffffffffffffffffffffffffff1614612b76576040517f08c379a0000000000000000000000000000000000000000000000000000000008152600401612b6d90614be3565b60405180910390fd5b601060009054906101000a900460ff1615601060006101000a81548160ff021916908315150217905550565b6000601660008373ffffffffffffffffffffffffffffffffffffffff1673ffffffffffffffffffffffffffffffffffffffff168152602001908152602001600020549050919050565b600060126000838152602001908152602001600020549050919050565b6000600f54905090565b6000600560008473ffffffffffffffffffffffffffffffffffffffff1673ffffffffffffffffffffffffffffffffffffffff16815260200190815260200160002060008373ffffffffffffffffffffffffffffffffffffffff1673ffffffffffffffffffffffffffffffffffffffff16815260200190815260200160002060009054906101000a900460ff16905092915050565b60126020528060005260406000206000915090505481565b612cc6612f7e565b73ffffffffffffffffffffffffffffffffffffffff16612ce4612207565b73ffffffffffffffffffffffffffffffffffffffff1614612d3a576040517f08c379a0000000000000000000000000000000000000000000000000000000008152600401612d3190614be3565b60405180910390fd5b600073ffffffffffffffffffffffffffffffffffffffff168173ffffffffffffffffffffffffffffffffffffffff161415612daa576040517f08c379a0000000000000000000000000000000000000000000000000000000008152600401612da1906155b5565b60405180910390fd5b612db381613283565b50565b60007f80ac58cd000000000000000000000000000000000000000000000000000000007bffffffffffffffffffffffffffffffffffffffffffffffffffffffff1916827bffffffffffffffffffffffffffffffffffffffffffffffffffffffff19161480612e8157507f5b5e139f000000000000000000000000000000000000000000000000000000007bffffffffffffffffffffffffffffffffffffffffffffffffffffffff1916827bffffffffffffffffffffffffffffffffffffffffffffffffffffffff1916145b80612e915750612e90826134fd565b5b9050919050565b60007f2a55205a000000000000000000000000000000000000000000000000000000007bffffffffffffffffffffffffffffffffffffffffffffffffffffffff1916827bffffffffffffffffffffffffffffffffffffffffffffffffffffffff19161480612f0b5750612f0a82612db6565b5b9050919050565b60008073ffffffffffffffffffffffffffffffffffffffff166002600084815260200190815260200160002060009054906101000a900473ffffffffffffffffffffffffffffffffffffffff1673ffffffffffffffffffffffffffffffffffffffff1614159050919050565b600033905090565b816004600083815260200190815260200160002060006101000a81548173ffffffffffffffffffffffffffffffffffffffff021916908373ffffffffffffffffffffffffffffffffffffffff160217905550808273ffffffffffffffffffffffffffffffffffffffff16612ff983611e2a565b73ffffffffffffffffffffffffffffffffffffffff167f8c5be1e5ebec7d5bd14f71427d1e84f3dd0314c0f7b2291e5b200ac8c7c3b92560405160405180910390a45050565b61305061304a612f7e565b82613199565b61308f576040517f08c379a000000000000000000000000000000000000000000000000000000000815260040161308690615647565b60405180910390fd5b61309a838383613567565b505050565b6127108111156130e4576040517f08c379a00000000000000000000000000000000000000000000000000000000081526004016130db906156b3565b60405180910390fd5b60405180604001604052808373ffffffffffffffffffffffffffffffffffffffff168152602001828152506006600085815260200190815260200160002060008201518160000160006101000a81548173ffffffffffffffffffffffffffffffffffffffff021916908373ffffffffffffffffffffffffffffffffffffffff16021790555060208201518160010155905050505050565b6131958282604051806020016040528060008152506137c3565b5050565b60006131a482612f12565b6131e3576040517f08c379a00000000000000000000000000000000000000000000000000000000081526004016131da90615745565b60405180910390fd5b60006131ee83611e2a565b90508073ffffffffffffffffffffffffffffffffffffffff168473ffffffffffffffffffffffffffffffffffffffff16148061325d57508373ffffffffffffffffffffffffffffffffffffffff1661324584610e25565b73ffffffffffffffffffffffffffffffffffffffff16145b8061326e575061326d8185612c12565b5b91505092915050565b6132808161381e565b50565b6000600860009054906101000a900473ffffffffffffffffffffffffffffffffffffffff16905081600860006101000a81548173ffffffffffffffffffffffffffffffffffffffff021916908373ffffffffffffffffffffffffffffffffffffffff1602179055508173ffffffffffffffffffffffffffffffffffffffff168173ffffffffffffffffffffffffffffffffffffffff167f8be0079c531659141344cd1fd0a4f28419497f9722a3daafe3b4186f6b6457e060405160405180910390a35050565b61335a613354612f7e565b83613199565b613399576040517f08c379a000000000000000000000000000000000000000000000000000000000815260040161339090615647565b60405180910390fd5b6133a584848484613871565b50505050565b60606133b682612f12565b6133f5576040517f08c379a00000000000000000000000000000000000000000000000000000000081526004016133ec906157d7565b60405180910390fd5b6000600760008481526020019081526020016000208054613415906148e4565b80601f0160208091040260200160405190810160405280929190818152602001828054613441906148e4565b801561348e5780601f106134635761010080835404028352916020019161348e565b820191906000526020600020905b81548152906001019060200180831161347157829003601f168201915b50505050509050600061349f6138cd565b90506000815114156134b55781925050506134f8565b6000825111156134ea5780826040516020016134d2929190615833565b604051602081830303815290604052925050506134f8565b6134f38461395f565b925050505b919050565b60007f01ffc9a7000000000000000000000000000000000000000000000000000000007bffffffffffffffffffffffffffffffffffffffffffffffffffffffff1916827bffffffffffffffffffffffffffffffffffffffffffffffffffffffff1916149050919050565b8273ffffffffffffffffffffffffffffffffffffffff1661358782611e2a565b73ffffffffffffffffffffffffffffffffffffffff16146135dd576040517f08c379a00000000000000000000000000000000000000000000000000000000081526004016135d4906158c9565b60405180910390fd5b600073ffffffffffffffffffffffffffffffffffffffff168273ffffffffffffffffffffffffffffffffffffffff16141561364d576040517f08c379a00000000000000000000000000000000000000000000000000000000081526004016136449061595b565b60405180910390fd5b613658838383613a06565b613663600082612f86565b6001600360008573ffffffffffffffffffffffffffffffffffffffff1673ffffffffffffffffffffffffffffffffffffffff16815260200190815260200160002060008282546136b3919061597b565b925050819055506001600360008473ffffffffffffffffffffffffffffffffffffffff1673ffffffffffffffffffffffffffffffffffffffff168152602001908152602001600020600082825461370a9190614e27565b92505081905550816002600083815260200190815260200160002060006101000a81548173ffffffffffffffffffffffffffffffffffffffff021916908373ffffffffffffffffffffffffffffffffffffffff160217905550808273ffffffffffffffffffffffffffffffffffffffff168473ffffffffffffffffffffffffffffffffffffffff167fddf252ad1be2c89b69c2b068fc378daa952ba7f163c4a11628f55a4df523b3ef60405160405180910390a4505050565b6137cd8383613a0b565b6137da6000848484613bd9565b613819576040517f08c379a000000000000000000000000000000000000000000000000000000000815260040161381090615a21565b60405180910390fd5b505050565b61382781613d61565b6000600760008381526020019081526020016000208054613847906148e4565b90501461386e5760076000828152602001908152602001600020600061386d919061406c565b5b50565b61387c848484613567565b61388884848484613bd9565b6138c7576040517f08c379a00000000000000000000000000000000000000000000000000000000081526004016138be90615a21565b60405180910390fd5b50505050565b6060600e80546138dc906148e4565b80601f0160208091040260200160405190810160405280929190818152602001828054613908906148e4565b80156139555780601f1061392a57610100808354040283529160200191613955565b820191906000526020600020905b81548152906001019060200180831161393857829003601f168201915b5050505050905090565b606061396a82612f12565b6139a9576040517f08c379a00000000000000000000000000000000000000000000000000000000081526004016139a090615ab3565b60405180910390fd5b60006139b36138cd565b905060008151116139d357604051806020016040528060008152506139fe565b806139dd84613e72565b6040516020016139ee929190615833565b6040516020818303038152906040525b915050919050565b505050565b600073ffffffffffffffffffffffffffffffffffffffff168273ffffffffffffffffffffffffffffffffffffffff161415613a7b576040517f08c379a0000000000000000000000000000000000000000000000000000000008152600401613a7290615b1f565b60405180910390fd5b613a8481612f12565b15613ac4576040517f08c379a0000000000000000000000000000000000000000000000000000000008152600401613abb90615b8b565b60405180910390fd5b613ad060008383613a06565b6001600360008473ffffffffffffffffffffffffffffffffffffffff1673ffffffffffffffffffffffffffffffffffffffff1681526020019081526020016000206000828254613b209190614e27565b92505081905550816002600083815260200190815260200160002060006101000a81548173ffffffffffffffffffffffffffffffffffffffff021916908373ffffffffffffffffffffffffffffffffffffffff160217905550808273ffffffffffffffffffffffffffffffffffffffff16600073ffffffffffffffffffffffffffffffffffffffff167fddf252ad1be2c89b69c2b068fc378daa952ba7f163c4a11628f55a4df523b3ef60405160405180910390a45050565b6000613bfa8473ffffffffffffffffffffffffffffffffffffffff16613fd3565b15613d54578373ffffffffffffffffffffffffffffffffffffffff1663150b7a02613c23612f7e565b8786866040518563ffffffff1660e01b8152600401613c459493929190615bf5565b6020604051808303816000875af1925050508015613c8157506040513d601f19601f82011682018060405250810190613c7e9190615c56565b60015b613d04573d8060008114613cb1576040519150601f19603f3d011682016040523d82523d6000602084013e613cb6565b606091505b50600081511415613cfc576040517f08c379a0000000000000000000000000000000000000000000000000000000008152600401613cf390615a21565b60405180910390fd5b805181602001fd5b63150b7a0260e01b7bffffffffffffffffffffffffffffffffffffffffffffffffffffffff1916817bffffffffffffffffffffffffffffffffffffffffffffffffffffffff191614915050613d59565b600190505b949350505050565b6000613d6c82611e2a565b9050613d7a81600084613a06565b613d85600083612f86565b6001600360008373ffffffffffffffffffffffffffffffffffffffff1673ffffffffffffffffffffffffffffffffffffffff1681526020019081526020016000206000828254613dd5919061597b565b925050819055506002600083815260200190815260200160002060006101000a81549073ffffffffffffffffffffffffffffffffffffffff021916905581600073ffffffffffffffffffffffffffffffffffffffff168273ffffffffffffffffffffffffffffffffffffffff167fddf252ad1be2c89b69c2b068fc378daa952ba7f163c4a11628f55a4df523b3ef60405160405180910390a45050565b60606000821415613eba576040518060400160405280600181526020017f30000000000000000000000000000000000000000000000000000000000000008152509050613fce565b600082905060005b60008214613eec578080613ed590614b4e565b915050600a82613ee59190614c8c565b9150613ec2565b60008167ffffffffffffffff811115613f0857613f0761449b565b5b6040519080825280601f01601f191660200182016040528015613f3a5781602001600182028036833780820191505090505b5090505b60008514613fc757600182613f53919061597b565b9150600a85613f629190615c83565b6030613f6e9190614e27565b60f81b818381518110613f8457613f83615cb4565b5b60200101907effffffffffffffffffffffffffffffffffffffffffffffffffffffffffffff1916908160001a905350600a85613fc09190614c8c565b9450613f3e565b8093505050505b919050565b600080823b905060008111915050919050565b828054613ff2906148e4565b90600052602060002090601f016020900481019282614014576000855561405b565b82601f1061402d57805160ff191683800117855561405b565b8280016001018555821561405b579182015b8281111561405a57825182559160200191906001019061403f565b5b50905061406891906140ac565b5090565b508054614078906148e4565b6000825580601f1061408a57506140a9565b601f0160209004906000526020600020908101906140a891906140ac565b5b50565b5b808211156140c55760008160009055506001016140ad565b5090565b6000604051905090565b600080fd5b600080fd5b60007fffffffff0000000000000000000000000000000000000000000000000000000082169050919050565b614112816140dd565b811461411d57600080fd5b50565b60008135905061412f81614109565b92915050565b60006020828403121561414b5761414a6140d3565b5b600061415984828501614120565b91505092915050565b60008115159050919050565b61417781614162565b82525050565b6000602082019050614192600083018461416e565b92915050565b600081519050919050565b600082825260208201905092915050565b60005b838110156141d25780820151818401526020810190506141b7565b838111156141e1576000848401525b50505050565b6000601f19601f8301169050919050565b600061420382614198565b61420d81856141a3565b935061421d8185602086016141b4565b614226816141e7565b840191505092915050565b6000602082019050818103600083015261424b81846141f8565b905092915050565b6000819050919050565b61426681614253565b811461427157600080fd5b50565b6000813590506142838161425d565b92915050565b60006020828403121561429f5761429e6140d3565b5b60006142ad84828501614274565b91505092915050565b600073ffffffffffffffffffffffffffffffffffffffff82169050919050565b60006142e1826142b6565b9050919050565b6142f1816142d6565b82525050565b600060208201905061430c60008301846142e8565b92915050565b61431b816142d6565b811461432657600080fd5b50565b60008135905061433881614312565b92915050565b60008060408385031215614355576143546140d3565b5b600061436385828601614329565b925050602061437485828601614274565b9150509250929050565b61438781614253565b82525050565b60006020820190506143a2600083018461437e565b92915050565b6000806000606084860312156143c1576143c06140d3565b5b60006143cf86828701614329565b93505060206143e086828701614329565b92505060406143f186828701614274565b9150509250925092565b600060208284031215614411576144106140d3565b5b600061441f84828501614329565b91505092915050565b6000806040838503121561443f5761443e6140d3565b5b600061444d85828601614274565b925050602061445e85828601614274565b9150509250929050565b600060408201905061447d60008301856142e8565b61448a602083018461437e565b9392505050565b600080fd5b600080fd5b7f4e487b7100000000000000000000000000000000000000000000000000000000600052604160045260246000fd5b6144d3826141e7565b810181811067ffffffffffffffff821117156144f2576144f161449b565b5b80604052505050565b60006145056140c9565b905061451182826144ca565b919050565b600067ffffffffffffffff8211156145315761453061449b565b5b61453a826141e7565b9050602081019050919050565b82818337600083830152505050565b600061456961456484614516565b6144fb565b90508281526020810184848401111561458557614584614496565b5b614590848285614547565b509392505050565b600082601f8301126145ad576145ac614491565b5b81356145bd848260208601614556565b91505092915050565b600080604083850312156145dd576145dc6140d3565b5b60006145eb85828601614274565b925050602083013567ffffffffffffffff81111561460c5761460b6140d8565b5b61461885828601614598565b9150509250929050565b6000819050919050565b600061464761464261463d846142b6565b614622565b6142b6565b9050919050565b60006146598261462c565b9050919050565b600061466b8261464e565b9050919050565b61467b81614660565b82525050565b60006020820190506146966000830184614672565b92915050565b6000602082840312156146b2576146b16140d3565b5b600082013567ffffffffffffffff8111156146d0576146cf6140d8565b5b6146dc84828501614598565b91505092915050565b6146ee81614162565b81146146f957600080fd5b50565b60008135905061470b816146e5565b92915050565b60008060408385031215614728576147276140d3565b5b600061473685828601614329565b9250506020614747858286016146fc565b9150509250929050565b600067ffffffffffffffff82111561476c5761476b61449b565b5b614775826141e7565b9050602081019050919050565b600061479561479084614751565b6144fb565b9050828152602081018484840111156147b1576147b0614496565b5b6147bc848285614547565b509392505050565b600082601f8301126147d9576147d8614491565b5b81356147e9848260208601614782565b91505092915050565b6000806000806080858703121561480c5761480b6140d3565b5b600061481a87828801614329565b945050602061482b87828801614329565b935050604061483c87828801614274565b925050606085013567ffffffffffffffff81111561485d5761485c6140d8565b5b614869878288016147c4565b91505092959194509250565b6000806040838503121561488c5761488b6140d3565b5b600061489a85828601614329565b92505060206148ab85828601614329565b9150509250929050565b7f4e487b7100000000000000000000000000000000000000000000000000000000600052602260045260246000fd5b600060028204905060018216806148fc57607f821691505b602082108114156149105761490f6148b5565b5b50919050565b7f4552433732313a20617070726f76656420717565727920666f72206e6f6e657860008201527f697374656e7420746f6b656e0000000000000000000000000000000000000000602082015250565b6000614972602c836141a3565b915061497d82614916565b604082019050919050565b600060208201905081810360008301526149a181614965565b9050919050565b7f4552433732313a20617070726f76616c20746f2063757272656e74206f776e6560008201527f7200000000000000000000000000000000000000000000000000000000000000602082015250565b6000614a046021836141a3565b9150614a0f826149a8565b604082019050919050565b60006020820190508181036000830152614a33816149f7565b9050919050565b7f4552433732313a20617070726f76652063616c6c6572206973206e6f74206f7760008201527f6e6572206e6f7220617070726f76656420666f7220616c6c0000000000000000602082015250565b6000614a966038836141a3565b9150614aa182614a3a565b604082019050919050565b60006020820190508181036000830152614ac581614a89565b9050919050565b6000604082019050614ae160008301856142e8565b614aee60208301846142e8565b9392505050565b7f4e487b7100000000000000000000000000000000000000000000000000000000600052601160045260246000fd5b6000614b2f82614253565b91506000821415614b4357614b42614af5565b5b600182039050919050565b6000614b5982614253565b91507fffffffffffffffffffffffffffffffffffffffffffffffffffffffffffffffff821415614b8c57614b8b614af5565b5b600182019050919050565b7f4f776e61626c653a2063616c6c6572206973206e6f7420746865206f776e6572600082015250565b6000614bcd6020836141a3565b9150614bd882614b97565b602082019050919050565b60006020820190508181036000830152614bfc81614bc0565b9050919050565b6000614c0e82614253565b9150614c1983614253565b9250817fffffffffffffffffffffffffffffffffffffffffffffffffffffffffffffffff0483118215151615614c5257614c51614af5565b5b828202905092915050565b7f4e487b7100000000000000000000000000000000000000000000000000000000600052601260045260246000fd5b6000614c9782614253565b9150614ca283614253565b925082614cb257614cb1614c5d565b5b828204905092915050565b7f6675636b20796f75000000000000000000000000000000000000000000000000600082015250565b6000614cf36008836141a3565b9150614cfe82614cbd565b602082019050919050565b60006020820190508181036000830152614d2281614ce6565b9050919050565b7f41766174617220616c72656164792074616b656e2e0000000000000000000000600082015250565b6000614d5f6015836141a3565b9150614d6a82614d29565b602082019050919050565b60006020820190508181036000830152614d8e81614d52565b9050919050565b7f49742773206e6f7420706f737369626c6520746f20636c61696d206a7573742060008201527f7965742e00000000000000000000000000000000000000000000000000000000602082015250565b6000614df16024836141a3565b9150614dfc82614d95565b604082019050919050565b60006020820190508181036000830152614e2081614de4565b9050919050565b6000614e3282614253565b9150614e3d83614253565b9250827fffffffffffffffffffffffffffffffffffffffffffffffffffffffffffffffff03821115614e7257614e71614af5565b5b828201905092915050565b7f4e6f7420656e6f756768206c65667420746f206d696e742e0000000000000000600082015250565b6000614eb36018836141a3565b9150614ebe82614e7d565b602082019050919050565b60006020820190508181036000830152614ee281614ea6565b9050919050565b7f56616c75652073656e742069732062656c6f7720746865207072696365000000600082015250565b6000614f1f601d836141a3565b9150614f2a82614ee9565b602082019050919050565b60006020820190508181036000830152614f4e81614f12565b9050919050565b7f4f6e6c792031204e4654207065722077616c6c65742c20736f72727920210000600082015250565b6000614f8b601e836141a3565b9150614f9682614f55565b602082019050919050565b60006020820190508181036000830152614fba81614f7e565b9050919050565b6000819050919050565b6000614fe6614fe1614fdc84614fc1565b614622565b614253565b9050919050565b614ff681614fcb565b82525050565b600060408201905061501160008301856142e8565b61501e6020830184614fed565b9392505050565b7f4552433732314275726e61626c653a2063616c6c6572206973206e6f74206f7760008201527f6e6572206e6f7220617070726f76656400000000000000000000000000000000602082015250565b60006150816030836141a3565b915061508c82615025565b604082019050919050565b600060208201905081810360008301526150b081615074565b9050919050565b7f596f7520646f206e6f74206f776e207468697320646177672021000000000000600082015250565b60006150ed601a836141a3565b91506150f8826150b7565b602082019050919050565b6000602082019050818103600083015261511c816150e0565b9050919050565b600081519050919050565b600081905092915050565b600061514482615123565b61514e818561512e565b935061515e8185602086016141b4565b80840191505092915050565b60006151768284615139565b915081905092915050565b6000819050919050565b61519481615181565b811461519f57600080fd5b50565b6000815190506151b18161518b565b92915050565b6000602082840312156151cd576151cc6140d3565b5b60006151db848285016151a2565b91505092915050565b60008190508160005260206000209050919050565b60008154615206816148e4565b615210818661512e565b9450600182166000811461522b576001811461523c5761526f565b60ff1983168652818601935061526f565b615245856151e4565b60005b8381101561526757815481890152600182019150602081019050615248565b838801955050505b50505092915050565b600061528482846151f9565b915081905092915050565b7f4e6f206e65656420746f2070617920747769636520746f20726567697374657260008201527f207468652073616d652062696f20210000000000000000000000000000000000602082015250565b60006152eb602f836141a3565b91506152f68261528f565b604082019050919050565b6000602082019050818103600083015261531a816152de565b9050919050565b7f4552433732313a206f776e657220717565727920666f72206e6f6e657869737460008201527f656e7420746f6b656e0000000000000000000000000000000000000000000000602082015250565b600061537d6029836141a3565b915061538882615321565b604082019050919050565b600060208201905081810360008301526153ac81615370565b9050919050565b7f4552433732313a2062616c616e636520717565727920666f7220746865207a6560008201527f726f206164647265737300000000000000000000000000000000000000000000602082015250565b600061540f602a836141a3565b915061541a826153b3565b604082019050919050565b6000602082019050818103600083015261543e81615402565b9050919050565b7f4552433732313a20617070726f766520746f2063616c6c657200000000000000600082015250565b600061547b6019836141a3565b915061548682615445565b602082019050919050565b600060208201905081810360008301526154aa8161546e565b9050919050565b7f4e6f206e65656420746f2070617920747769636520746f20726567697374657260008201527f207468652073616d65206e616d65202100000000000000000000000000000000602082015250565b600061550d6030836141a3565b9150615518826154b1565b604082019050919050565b6000602082019050818103600083015261553c81615500565b9050919050565b7f4f776e61626c653a206e6577206f776e657220697320746865207a65726f206160008201527f6464726573730000000000000000000000000000000000000000000000000000602082015250565b600061559f6026836141a3565b91506155aa82615543565b604082019050919050565b600060208201905081810360008301526155ce81615592565b9050919050565b7f4552433732313a207472616e736665722063616c6c6572206973206e6f74206f60008201527f776e6572206e6f7220617070726f766564000000000000000000000000000000602082015250565b60006156316031836141a3565b915061563c826155d5565b604082019050919050565b6000602082019050818103600083015261566081615624565b9050919050565b7f45524332393831526f79616c746965733a20546f6f2068696768000000000000600082015250565b600061569d601a836141a3565b91506156a882615667565b602082019050919050565b600060208201905081810360008301526156cc81615690565b9050919050565b7f4552433732313a206f70657261746f7220717565727920666f72206e6f6e657860008201527f697374656e7420746f6b656e0000000000000000000000000000000000000000602082015250565b600061572f602c836141a3565b915061573a826156d3565b604082019050919050565b6000602082019050818103600083015261575e81615722565b9050919050565b7f45524337323155524953746f726167653a2055524920717565727920666f722060008201527f6e6f6e6578697374656e7420746f6b656e000000000000000000000000000000602082015250565b60006157c16031836141a3565b91506157cc82615765565b604082019050919050565b600060208201905081810360008301526157f0816157b4565b9050919050565b600081905092915050565b600061580d82614198565b61581781856157f7565b93506158278185602086016141b4565b80840191505092915050565b600061583f8285615802565b915061584b8284615802565b91508190509392505050565b7f4552433732313a207472616e73666572206f6620746f6b656e2074686174206960008201527f73206e6f74206f776e0000000000000000000000000000000000000000000000602082015250565b60006158b36029836141a3565b91506158be82615857565b604082019050919050565b600060208201905081810360008301526158e2816158a6565b9050919050565b7f4552433732313a207472616e7366657220746f20746865207a65726f2061646460008201527f7265737300000000000000000000000000000000000000000000000000000000602082015250565b60006159456024836141a3565b9150615950826158e9565b604082019050919050565b6000602082019050818103600083015261597481615938565b9050919050565b600061598682614253565b915061599183614253565b9250828210156159a4576159a3614af5565b5b828203905092915050565b7f4552433732313a207472616e7366657220746f206e6f6e20455243373231526560008201527f63656976657220696d706c656d656e7465720000000000000000000000000000602082015250565b6000615a0b6032836141a3565b9150615a16826159af565b604082019050919050565b60006020820190508181036000830152615a3a816159fe565b9050919050565b7f4552433732314d657461646174613a2055524920717565727920666f72206e6f60008201527f6e6578697374656e7420746f6b656e0000000000000000000000000000000000602082015250565b6000615a9d602f836141a3565b9150615aa882615a41565b604082019050919050565b60006020820190508181036000830152615acc81615a90565b9050919050565b7f4552433732313a206d696e7420746f20746865207a65726f2061646472657373600082015250565b6000615b096020836141a3565b9150615b1482615ad3565b602082019050919050565b60006020820190508181036000830152615b3881615afc565b9050919050565b7f4552433732313a20746f6b656e20616c7265616479206d696e74656400000000600082015250565b6000615b75601c836141a3565b9150615b8082615b3f565b602082019050919050565b60006020820190508181036000830152615ba481615b68565b9050919050565b600082825260208201905092915050565b6000615bc782615123565b615bd18185615bab565b9350615be18185602086016141b4565b615bea816141e7565b840191505092915050565b6000608082019050615c0a60008301876142e8565b615c1760208301866142e8565b615c24604083018561437e565b8181036060830152615c368184615bbc565b905095945050505050565b600081519050615c5081614109565b92915050565b600060208284031215615c6c57615c6b6140d3565b5b6000615c7a84828501615c41565b91505092915050565b6000615c8e82614253565b9150615c9983614253565b925082615ca957615ca8614c5d565b5b828206905092915050565b7f4e487b7100000000000000000000000000000000000000000000000000000000600052603260045260246000fdfea264697066735822122027e06312eed305a900775b04e92b7d428e213b4110e434249438ae3b3b07739764736f6c634300080b003368747470733a2f2f7777772e63796265726b6f6e677a2e636f6d2f6170692f6d657461646174612f",
  "linkReferences": {},
  "deployedLinkReferences": {}
}